{
  "contractName": "Adoption",
  "abi": [
    {
      "constant": false,
      "inputs": [
        {
          "name": "petId",
          "type": "uint256"
        }
      ],
      "name": "adobt",
      "outputs": [
        {
          "name": "",
          "type": "uint256"
        }
      ],
      "payable": false,
      "type": "function",
      "stateMutability": "nonpayable"
    },
    {
      "constant": true,
      "inputs": [
        {
          "name": "",
          "type": "uint256"
        }
      ],
      "name": "addopters",
      "outputs": [
        {
          "name": "",
          "type": "address"
        }
      ],
      "payable": false,
      "type": "function",
      "stateMutability": "view"
    },
    {
      "constant": false,
      "inputs": [],
      "name": "getAdopters",
      "outputs": [
        {
          "name": "",
          "type": "address[16]"
        }
      ],
      "payable": false,
      "type": "function",
      "stateMutability": "nonpayable"
    }
  ],
  "bytecode": "0x6060604052341561000f57600080fd5b6102dd8061001e6000396000f300606060405260043610610057576000357c0100000000000000000000000000000000000000000000000000000000900463ffffffff1680631d4cc8711461005c57806332fe3e9a146100935780633de4eb17146100f6575b600080fd5b341561006757600080fd5b61007d6004808035906020019091905050610147565b6040518082815260200191505060405180910390f35b341561009e57600080fd5b6100b460048080359060200190919050506101bc565b604051808273ffffffffffffffffffffffffffffffffffffffff1673ffffffffffffffffffffffffffffffffffffffff16815260200191505060405180910390f35b341561010157600080fd5b6101096101f1565b6040518082601060200280838360005b83811015610134578082015181840152602081019050610119565b5050505090500191505060405180910390f35b600080821015801561015a5750600f8211155b151561016557600080fd5b3360008360108110151561017557fe5b0160006101000a81548173ffffffffffffffffffffffffffffffffffffffff021916908373ffffffffffffffffffffffffffffffffffffffff160217905550819050919050565b6000816010811015156101cb57fe5b016000915054906101000a900473ffffffffffffffffffffffffffffffffffffffff1681565b6101f9610272565b6000601080602002604051908101604052809291908260108015610268576020028201915b8160009054906101000a900473ffffffffffffffffffffffffffffffffffffffff1673ffffffffffffffffffffffffffffffffffffffff168152602001906001019080831161021e575b5050505050905090565b610200604051908101604052806010905b600073ffffffffffffffffffffffffffffffffffffffff1681526020019060019003908161028357905050905600a165627a7a72305820b2875c873fe6263fdfb8c518b84ca291eb12afe7da2adef00d77ff6b459168400029",
  "source": "pragma solidity ^0.4.4;\n\n/**\n * This contract does this and that...\n */\ncontract Adoption {\n    address[16] public addopters;\n\n    function adobt (uint petId) public returns (uint) {\n        require(petId >= 0 && petId <= 15); \n        \n        addopters[petId] = msg.sender;\n\n        return petId;\n    }    \n\n    // Retriveing the addopters\n    function getAdopters() public returns(address[16]) {\n        return addopters;\n    }\n\n}\n",
  "sourcePath": "/home/andrew/Desktop/EthereumWork/LearnToDo/TruffleGoesHEre/contracts/Adoption.sol",
  "compiler": {
    "name": "solc",
    "version": "0.4.18+commit.9cf6e910.Emscripten.clang"
  },
  "schemaVersion": "1.0.1",
  "updatedAt": "2017-12-07T17:22:04.779Z"
}